:020000040800F2
:1000000028100020D50000087D2200089520000857
:1000100000000000000000000000000000000000E0
:10002000000000000000000000000000552600084D
:1000300000000000000000004126000857260008CC
:100040000501000805010008050100080501000878
:100050000501000805010008050100080501000868
:100060000501000805010008050100080501000858
:100070000501000805010008050100080501000848
:100080004D27000800000000000000003D27000888
:100090000000000005010008050100080501000836
:1000A000000000004526000805010008B12D0008E9
:1000B000050100080000000005010008C93B000818
:1000C0000348854600F05AF800480047B13C000854
:1000D000281000200C4880F308880C480168090E9D
:1000E0000B4A914205D10B480B4901600B480C4962
:1000F00001600C4880470C480047FEE7FEE7FEE73A
:10010000FEE7FEE7FEE700002810002004000000E4
:100110001F00000018100240010000000000014014
:1001200000000000E1260008C100000830B50B46C1
:10013000014600202022012409E00D46D5409D42C1
:1001400005D31D469540491B254695404019154647
:10015000521E002DF1DC30BDD2B201E00270401C15
:10016000491EFBD270470022F6E710B513460A4637
:1001700004461946FFF7F0FF204610BD064C012546
:10018000064E05E0E36807CC2B430C3C984710343F
:10019000B442F7D3FFF798FF4C3E00086C3E0008CE
:1001A00070B58C180578401C6B075B0F01D1037884
:1001B000401C2A1106D10278401C03E006780E701C
:1001C000401C491C5B1EF9D12B0705D40023521E8D
:1001D0000DD40B70491CFAE70378401CCB1A921C13
:1001E00003E01D780D70491C5B1C521EF9D5A1421D
:1001F000D8D3002070BD0020704700207047000059
:1002000010B500220549064802F0E6FE03490448FD
:10021000091F02F0DAFE002010BD000024020020B9
:100220004C050020F3B581B00F7800240C4D0D4E25
:100230000EE001980C49025D28780A54A021401C68
:10024000FFF774FF29703088401C641C3080E4B2D2
:10025000BC42EED3054802F09DFE0020FEBD00002A
:100260000E020020EA010020600300204C0500205F
:100270000A4610B507498969496D002901D0012056
:1002800010BD0146044802F0A7FE034802F0E8FE54
:1002900010BD00004C0700204C05002000207047D6
:1002A000002070470E480F4982690020135C0B54F0
:1002B000401CC0B20228F9D30878012802D00328D4
:1002C00006D00BE048780104081A0749C86305E026
:1002D0004878010240180449403108600020704706
:1002E0004C070020BC02002000040040FEE731B5AE
:1002F00000F0ACF8044600F0A9F80099001B884211
:10030000F9D338BDF8B5002389E001249C402A4682
:10031000A44622407ED04C68022C01D0122C0CD175
:10032000DC08A40027183C6A5D07ED0E0F26AE40DE
:10033000B4430E69AE4026433E6205685E00032466
:10034000B4400F79A543BF07BF0FB7402F430760E5
:100350004D68012D05D0022D03D0112D01D0122D95
:100360000ED18568CF68A543B7402F4387604768A3
:100370006546AF430D79ED06ED0F9D403D43456069
:10038000C568A5438C68B4402C43C4604C68E40045
:1003900044D5264CA56901263543A561A4699D086D
:1003A00034400094224CAD002F19BC689D072E0FDD
:1003B0000F25B540AC430925ED06A84201D1002523
:1003C0000AE01C4DA84201D1012505E01A4DA842C2
:1003D00001D1022500E00525B5402543BD60174C3D
:1003E00025684E689543F60300D51543256065687A
:1003F0004E689543B60300D515436560A5684E6801
:100400009543F60200D51543A560E5684E6895430F
:10041000B60200E002E000D51543E5605B1C0A6807
:100420001546DA4000D070E7F8BD00000010024029
:10043000000001400004004800080048000401409A
:100440000069084000D001207047000001480068A2
:1004500070470000E001002002480168491C01606B
:1004600070470000E001002010B506480168102226
:1004700011430160002000F007F800F017F8002099
:1004800010BD00000020024010B5044600F00EFF31
:100490007D21C900FFF74AFE01F034FA002221460F
:1004A000501E00F029F8002010BD000008B50C48CF
:1004B000816901221143816180691040002200900E
:1004C0001146501F00F018F800221146901E00F04F
:1004D00013F800221146501E00F00EF808BD00006F
:1004E00000100240C106C90E012088400149086081
:1004F0007047000000E100E010B501F0C1FE10BD42
:1005000010B50C0606D54906490E1C24614308188F
:10051000283004E01C2461430818FF30093099B2E8
:10052000002A06D001228272C180190C01810020AC
:1005300010BD002282728180F9E71C224A43121802
:1005400010B5FF30FF300230926BC06903F018F82D
:1005500010BD1C224A43121810B5FF30FF32FF3085
:10056000013202309269C06903F065F810BD0000E5
:10057000F0B54A06520E13461C256A43CC091218E0
:10058000002C01D0283201E0FF32093204461370FA
:10059000C909FF345170E134217A01293DD001218C
:1005A0002172957A494B002D4949557837D0002D55
:1005B00005681678AC465BD0B600AD5B6F0404D519
:1005C000444F0D403D436746BD5305681678AC4621
:1005D000B600AD5B6F0605D53C4F0D4040373D433F
:1005E0006746BD5315780668AF00F55B0D40394985
:1005F0000D43F553364F117830373D40066889007A
:100600001D4375521178334A00688900F13A15404C
:100610001D43455200202072F0BD0220F0BD002D88
:1006200005681678AC4610D0B600AD5B6F0605D5F0
:100630000D40264940310D4361468D5305681078C1
:10064000234A8100685A30320EE0B600AD5B6F0479
:1006500004D50D401F490D4361468D530568107840
:100660001C4A8100685AF13A104018436852D1E799
:10067000B600AD5B6F0404D5164F0D403D43674691
:10068000BD5305681678AC46B600AD5B6F0605D560
:100690000E4F0D4040373D436746BD531578076800
:1006A000AE00BD5B0D40094940310D43BD53094FBC
:1006B0001678F13F3D400168B6001D438D53117817
:1006C000034A890000683032A1E700008080000002
:1006D0008F8F000080C00000F0B54B06CA095B0E8A
:1006E000002A04D01C225A431218283204E01C228B
:1006F0004A431218FF3209320024947013700346E3
:10070000C909FF335170E133197A01291AD0012147
:10071000197251781A4C00291178066814D08D008E
:10072000715B4F0603D52140164C2143715311785C
:1007300000688A00124C815A3034214010246140F4
:10074000202414E00220F0BD8D00715B4F0403D51E
:1007500021400D4C21437153117800688A000A4CE6
:10076000815AF13C2140012424036140640061402E
:10077000044C403C2143815200201872F0BD00001F
:100780008F8F0000C080000080C000004906490E25
:100790001C2251430818FF300130008C80B2704792
:1007A000F0B54D066D0E2E461C246543CF092C185E
:1007B000002F01D0283401E0FF3409342670C90924
:1007C00061700146FF31E260E131E3708C46097AE5
:1007D00001290DD0012261460A72E2789349002A6C
:1007E00008D0012A20D0022A0DD0032A25D111E0F9
:1007F0000220F0BD237802689B00D55A0D40FF35DA
:10080000FF35023504E0237802689B00D55A0D407D
:10081000D55212E02278036892009D5A0D400321C0
:1008200049026918995208E0237802689B00D55A5A
:100830000D40012189026918D15226780768B50058
:100840007B5B7B497B4A0B40134333437B53A57A45
:10085000002D53D02578784E0B400768AD00334308
:100860007B53E38850265D0803686D00F65AF6183E
:100870002378DF0001239B02FB18F55223895026C1
:100880005D0803686D00F65AF6182378DF005311EF
:10089000FB18F55263780768002B237875D09D000C
:1008A0007B5B5E0403D5654E0B4033437B5323785B
:1008B00007689D007B5B5E0604D55E4E0B404036AC
:1008C00033437B53237805689E00AB5B0B405B4949
:1008D0000B43AB53564E21783036334005688900C0
:1008E00013436B522178554C00688900F13C23403A
:1008F00013434352002061460872F0BD6378002B19
:10090000A3881FD05D0803685026F65A6D00F618BC
:100910002378DF0001239B02FB18F5522378076838
:100920009D007B5B5E0604D50B40424940310B4382
:100930007B53016820783E4C8300C85A30342040F5
:10094000202440E05D0803685026F65A6D00F61832
:100950002378DF003A4BFB18F55203685025ED5A17
:10096000374EEB182578B61CED00AD195E19E3681B
:100970003E2B0BD9DD022D0CDB0601D16D1EADB275
:10098000AB020125ED032B4307E020E0DD032D0C36
:10099000DB0701D06D1CADB2AB0233802378076852
:1009A0009D007B5B5E0403D50B4024490B437B53C6
:1009B00001682078214C8300C85AF13C2040012472
:1009C00024036040640060401043C85292E79D00D9
:1009D0007B5B5E0403D5194E0B4033437B53237876
:1009E00007689D007B5B5E0604D5124E0B404036C7
:1009F00033437B53237805689E00AB5B0B400D4966
:100A000040310B43AB530D4E2178F13E334001266C
:100A100036037340760073400568890013436B52B8
:100A20002178034C89000068303460E78F8900002A
:100A30008F8F0000808000008081000080C0000057
:100A400004040000F0B54906490E1C244C43241848
:100A5000FF340934636122610022A261034662709F
:100A6000FF332170E133197A012908D0012119726D
:100A70006569E1688D4204D96D1A656103E0022061
:100A8000F0BD29466261A57A002D05D06578002D5C
:100A900019D0012D37D05AE005685026765B7619BB
:100AA0002578EF00324D7D1976193E293ED9CD02C9
:100AB0002D0CC90637D0A9020125ED03294300E01A
:100AC000A902318043E005685026765B76192578C7
:100AD000EF00274D2D1F7D1976193E290AD9CD0229
:100AE0002D0CCF0601D16D1EADB2AD020127FF0363
:100AF0003D4306E0CD032D0CCF0701D06D1CADB2F8
:100B0000AD02358009E005685026765B76192578B8
:100B1000EF00174D2D1F7D1971536578002DBBD047
:100B2000012D0AD013E06D1EADB2C4E7CD032D0C2C
:100B3000C907C5D06D1CADB2C2E705685026765B0B
:100B400076192578EF000A4D2D1F7D1971532178F4
:100B500000688C00015B074D294001252D03694089
:100B60006D006940044D294301531A720020F0BD05
:100B7000060400008FBF000080800000F0B5024630
:100B8000FF32E132137A012B0BD001244F06CB093F
:100B90007F0E1472002B06D01C237B431B182833B6
:100BA00006E00220F0BD1C234B431B18FF33093322
:100BB0009C701F70CE095E70012424031025114B18
:100BC000002F0BD04906C90D002E10D004680E4E20
:100BD000605A304068401843605210E001680B4E84
:100BE00008883040604068401843088007E0056886
:100BF000064E685A303E304060401843685200202C
:100C00001072F0BD80800000BF8F0000BFBF0000E9
:100C1000F0B506464806400E1C2141438D19EB6392
:100C20000021AA6329640121283537466970FF37FE
:100C30002870E137387A012806D03972EC68686983
:100C4000A04203D9001B03E00220F0BD04460020AF
:100C50006861A87A00280CD0297830688A00825C04
:100C600053064A4A6B7839D5002B12D0012B2CD071
:100C700032E0A3B2AA882969306801F0CEFC30685E
:100C80005021095A09182878C200414810180C52FE
:100C90006AE050231B5AC90018183D4B1B1DC91888
:100CA00041183E2C08D9E002000CE30601D1401E99
:100CB00080B28002104306E0E003000CE20701D09E
:100CC000401C80B28002088006E05022125A1018A0
:100CD000CA002F49511844522A8927E0002B02D01C
:100CE000012B1BD021E050231B5A1818CB00284998
:100CF000591841183E2C08D9E002000CE30601D136
:100D0000401E80B28002104306E0E003000CE207C0
:100D100001D0401C80B28002088006E05022125AA6
:100D20001018CA001A4951184452EA88A3B2296916
:100D3000306801F072FC6878164A002802D0012859
:100D40000AD011E0297830688900435A13400F4ACD
:100D5000C0321343435207E02878316880000B5AB1
:100D600013400D4A13430B52287831688200094B17
:100D7000885A303318401023584020235840034BE2
:100D800080331843885200203872F0BD0080000084
:100D9000020400008F8F000080C0000070B5044680
:100DA000006840308088C00B02D0204601F08AFAEB
:100DB00020684030818849050AD58188334A11402E
:100DC0008180204600F0DAF80021204600F000F98A
:100DD000206840308188490403D581882C4A11401D
:100DE0008180206840308188890403D58188294A20
:100DF000114081802068403081880425C904002981
:100E000010DA0188A9430180BD2021680002403129
:100E10000880204600F0BEF82068403081881E4AD5
:100E200011408180206840308188090517D581886C
:100E30001A4A1140818020684030018808221143FD
:100E400001802068403001882943018020684030BB
:100E50008088C043C00402D5204600F0E3F8206833
:100E600040308188890506D581880D4A11408180EE
:100E7000204600F0A5F8206840308188C90503D5D8
:100E80008188084A1140818070BD0000FFFB00008E
:100E9000FFBF0000FFDF0000FFEF0000FFF70000D2
:100EA000FFFD0000FFFE0000F8B500270446002803
:100EB00007D02646FF36E136707A0025002802D09A
:100EC00005E00120F8BD3572204600F03BF8032014
:100ED000707201210BE01C2078430219104620306B
:100EE00041720772C572556395637F1CD563606854
:100EF000B842F0D800200BE01C2242431219FF3206
:100F0000013255721072D57255619561401CD561E0
:100F100062688242F0D8206840300180206840300A
:100F20000580206840308580206840300582BF20E1
:100F30002268000240321080203425717172002036
:100F4000F8BD000008B500680A49884210D10A4877
:100F5000C2690121C9050A43C261C0690022084073
:100F6000009011461F20FFF7C7FA1F20FFF7BAFABB
:100F700008BD0000005C00400010024010B5C41D18
:100F8000FF34FA340121E06902F047FCE06902F025
:100F90000CFC10BD10B504468069002806D0074837
:100FA000016906229143016101F05CFBFF34FF34CB
:100FB0000234E06902F01CFC10BD000000ED00E00E
:100FC000FF3010B5FF300230C06902F017FC10BDD1
:100FD0000246FF32E132137A012B08D0012313724B
:100FE000002906D0203001710020107270470220C5
:100FF00070470068802140308181F5E710B5872176
:1010000089000A580146FF31ED31104602F011FC0B
:1010100010BD00684030018B0122D20311430183CF
:101020000020704710B50446FF30FF300230C06921
:1010300002F040FCA069002804D0034801690622A0
:101040001143016110BD000000ED00E0F8B5044659
:1010500000683E4DC00352D5E8690026C00007D4A1
:10106000E96928040143E961E96901400126009129
:1010700037480168C90510D4016882151143016021
:10108000FFF7E4F9074604E0FFF7E0F9C01B642826
:1010900024D82F480068C005F6D5286A03273F02E8
:1010A000384020D06168394081421CD0286A2A6AC1
:1010B000B843012109040A432A622A6A8A432A6240
:1010C0002862C0070FD0FFF7C1F9009008E0FFF7D2
:1010D000BDF90099411A1F48814201D90320F8BD8A
:1010E000286A8007F3D5286A6168B84308432862F4
:1010F000002E04D0E969012000078143E9612078CE
:10110000C00705D0286BA1688008800008432863C9
:101110002078800605D5286B10218843E1680843B4
:1011200028632068800305D5286B80218843616986
:10113000084328632088400505D5286B4021884353
:101140002169084328630020F8BD00000010024018
:101150000070004088130000F8B505464E480E4662
:101160000068C007C00FB0420AD24B480168490866
:101170004900314301600068C007C00FB04270D120
:101180002878464C800705D56068F0218843A96817
:10119000084360602878C00753D06868012817D0DA
:1011A000022818D0032819D021688907002958DAA5
:1011B00061688908890001436160FFF747F9696840
:1011C0000746012913D002291DD0032927D034E076
:1011D00021688903EAE721688901E7E7616BC903B0
:1011E000E4E7FFF733F9C11B2D48814223D860683B
:1011F0000007800F0128F4D123E0FFF727F9C11B76
:101200002748814217D860680007800F0228F4D170
:1012100017E0FFF71BF9C11B214881420BD860681A
:101220000007800F0328F4D10BE0FFF70FF9C11B73
:101230001B48814201D90320F8BD60680007800F78
:10124000F3D115480168C907C90FB1420BD901682C
:1012500049084900314301600068C007C00FB0422F
:1012600001D00120F8BD2878400706D56068072125
:1012700009028843E9680843606000F02DF861685E
:10128000084A0906090F515CC84007490860002058
:10129000FFF7FAF80020F8BD0020024000100240DD
:1012A00088130000343E0008DC010020014800687B
:1012B00070470000DC0100200448054900684968C7
:1012C000044A4905490F515CC8407047DC010020C1
:1012D00000100240443E000830B516A30FCB89B081
:1012E0006C460FC417A30FCB0FC41A494A680C20D1
:1012F000144604401848042C05D0184B082C04D080
:101300000C2C00D1184609B030BD9402240F6D4654
:101310002C5DC96A04AD0907090FD203695C920FFD
:10132000022A02D0032A00D11846FEF7FFFE6043CE
:10133000E9E7000002030405060708090A0B0C0D83
:101340000E0F10100102030405060708090A0B0C12
:101350000D0E0F100010024000127A00006CDC022B
:10136000FEB504460078F04EF04DC00748D06868DE
:101370000007800F01281FD068680007800F02282F
:1013800004D16868C003800F022815D06168012964
:1013900019D001208004002901D0052917D029681F
:1013A000B1432960296881432960606800281BD007
:1013B000FFF74CF8074613E02868800320D56068E3
:1013C000002876D01CE0286830432860EDE72968C3
:1013D00001432960F7E7FFF739F8C01B642869D893
:1013E00028688003F7D50BE0FFF730F8074604E0E4
:1013F000FFF72CF8C01B6428F1D828688003F7D4C5
:10140000207880073ED568680007800F14D0686890
:101410000007800F022804D16868C003800F0128EC
:101420000AD0E068002828681DD001210843286000
:10143000FFF70CF807460BE0286880070BD5E0683B
:10144000012836D107E0FFF701F8C01B0228C6D8F3
:1014500028688007F7D52868F82188432169C900E2
:10146000084328600EE0400840002860FEF7EEFFC9
:10147000074604E0FEF7EAFFC01B0228AFD8286841
:101480008007F7D42078000724D5E0690028686A2F
:1014900011D0012108436862FEF7D8FF074604E037
:1014A000FEF7D4FFC01B022899D8686A8007F7D5D9
:1014B00010E036E1D1E0400840006862FEF7C6FF68
:1014C000074604E0FEF7C2FFC01B022887D8686AFF
:1014D0008007F7D4207804274007002861DA00202D
:1014E0000190E869C00008D4E969B8060143E961E0
:1014F000E96901400120009101908D480168C9050A
:1015000011D40168821511430160FEF79FFF00901E
:1015100005E0FEF79BFF0099401A642897D884489D
:101520000068C005F5D5A06801280AD0002801D0C0
:10153000052811D0286A400840002862286AB8436C
:1015400002E0286A012108432862A068002812D01E
:10155000FEF77CFF00900AE0286A38432862F0E733
:10156000FEF774FF0099411A7248814275D8286AC3
:101570008007F5D50DE0FEF769FF009006E0FEF765
:1015800065FF0099411A6B48814266D8286A800736
:10159000F5D40198002804D0E969012000078143AF
:1015A000E9612078C00635D5606901280CD0401D5E
:1015B000686B24D038436863686B400840006863F8
:1015C000FEF744FF074622E0686B38436863686BA8
:1015D000012108436863FEF739FF074604E0FEF780
:1015E00035FFC01B022838D8686B8007F7D5686BB9
:1015F000F8218843A169C900084368630AE0B84339
:101600006863F4E7FEF722FFC01B022825D8686B49
:101610008007F7D42078800637D568680007800FE8
:10162000032813D068680007800F022804D1686877
:10163000C003800F032809D0206A0028686B16D0E9
:1016400030436863FEF702FF06460CE0686BC00398
:101650001BD5206A012864D117E05BE0FEF7F6FE97
:10166000801B022856D8686BC003F7D50DE0B04345
:101670006863FEF7EBFE064604E0FEF7E7FE801B1C
:10168000022847D8686BC003F7D4606A002846D0A8
:1016900069680907890F022943D001263606022806
:1016A000286805D0B0432860FEF7D0FE044633E03A
:1016B000B0432860FEF7CAFE074604E0FEF7C6FE08
:1016C000C01B022826D828688001F7D4E86A216B5D
:1016D000000900010843E862A16AE06A08436968FA
:1016E0007B22D20391430843686028683043286016
:1016F000FEF7ACFE044604E0FEF7A8FE001B02283D
:1017000008D828688001F7D509E0FEF79FFE001B86
:10171000022801D90320FEBD28688001F5D40020ED
:10172000FEBD0120FEBD00000000010000100240CF
:1017300000700040881300007047F8B502685368D5
:1017400091684C0605D4CC0703D05C0601D5C16C6A
:1017500004E08C0704D51B0602D5016D8847F8BD4F
:10176000FF2361331942FAD003464C064033002C64
:1017700009DA5C7F032CF2D0046E04252C43046646
:10178000D468946800948D060124002D08DA056E53
:10179000254305669568009515684026B543156094
:1017A000C90506D5016E08221143016601688968E2
:1017B000009101684A68E025AA434A605C77FFF718
:1017C000BBFFF8BDF8B5040006D025464035687F5C
:1017D0000026002802D005E00120F8BD2E77204623
:1017E00000F058F802236B7720680168402291438B
:1017F00001600722E0681202904201D9002101E055
:10180000012109030F273F02B84202D0904200D0C5
:10181000A662276B002F05D1904201D9236301E016
:1018200001202063A26860686369104322691A433B
:1018300010430123A2695B021A401043E26910437E
:10184000226A1043A26A104322681060206B0228AB
:1018500004D1206802689B001A430260626B606AD0
:10186000A36910431B0C0427E2683B401A43104352
:101870000843216848602168E06A08612068C169FE
:10188000034A1140C1612666012068770020F8BD37
:10189000FFF7000000B50068114987B088421DD1EC
:1018A0001048826981140A4382618069084005906A
:1018B000E02000900220019000210320039002917B
:1018C000049109206946C006FEF71CFD002211465E
:1018D0001920FEF711FE1920FEF704FE07B000BD27
:1018E0000030014000100240042204490428086925
:1018F00002D09043086170471043FBE700E000E02E
:1019000070470000094910B5401E884201D90120E6
:1019100010BD074C60610321081F00F0B1FC0020DE
:10192000A06107202061002010BD0000FFFFFF0024
:1019300000E000E010B5FFF7E3FF10BD704770470F
:1019400070B502462032137E012B1BD00123137683
:1019500002245476046865687026B543656004689F
:1019600065680E68354365600468A5688026B543E0
:10197000A5600068846849680C4384605376002041
:10198000107670BD022070BD70B5040005D02546EC
:101990002035687E002802D006E0012070BD0020BE
:1019A0002876204600F00AF802206876211D20687B
:1019B00000F0D4FE01206876002070BD08B5134AFF
:1019C0000168134891420DD1C26902210A43C261E4
:1019D000C06900220840009011461020FEF78CFDDF
:1019E00010200FE00B4A91420ED1C26989150A43BB
:1019F000C261C06900220840009011461320FEF722
:101A00007BFD1320FEF76EFD08BD000000040040C2
:101A100000100240002000400268D36801210B43FF
:101A2000D360006802680A43026000207047F8B57E
:101A3000054604462035287E012817D001272F7639
:101A400002206876226890687726FF23B0431B0245
:101A5000984390600868502837D00EDC202857D073
:101A600006DC00284ED0102840D14EE00220F8BD00
:101A7000302850D0402839D13CE060282DD0702843
:101A800017D001221203801A0ED090422ED1CB68BB
:101A90004A688968206800F0AAFE206881680122EF
:101AA00092031143816021E020688168C908C90060
:101AB000F8E7CB684A688968206800F098FE2168DA
:101AC0008868B0433043886010E0CA68496820687D
:101AD00000F082FF5021206806E0CA68496820684B
:101AE00000F08BFF6021206800F08CFE6F760020F4
:101AF0002876F8BDCA684968206800F06DFF40216B
:101B00002068F1E700212068EEE710212068EBE76C
:101B100020212068E8E730212068E5E7704770B5AC
:101B20000446006801690025C9438907002915DBBF
:101B3000C168C943890711D4E91E016101202076DB
:101B4000206880698007204602D0FFF7E7FF04E0A5
:101B500000F0B0F8204600F031F9257620680169E0
:101B6000C943490717D4C168C943490713D404219D
:101B7000C943016102202076206880698005800FBA
:101B8000204602D0FFF7CAFF04E000F093F8204699
:101B900000F014F9257620680169C943090716D4B5
:101BA000C168C943090712D40821C943016104204F
:101BB00020762068C0698007204602D0FFF7AEFF7C
:101BC00004E000F077F8204600F0F8F82576206869
:101BD0000169C943C90617D4C168C943C90613D4EA
:101BE0001021C9430161082020762068C069800562
:101BF000800F204602D0FFF791FF04E000F05AF872
:101C0000204600F0DBF8257620680169C943C90742
:101C100008D1C168C943C90704D1891E01612046A2
:101C200000F0F0F820680169C943090609D4C168C9
:101C3000C943090605D48021C94301612046FFF745
:101C40007DFE20680169C943490609D4C168C943BA
:101C5000490605D44021C9430161204600F008F936
:101C600020680169C943890609D4C168C943890646
:101C700005D42021C94301612046FFF760FE70BDF5
:101C800000B50068094985B088420CD103200221C3
:101C90000191009003900021012002910490694677
:101CA0000348FEF72FFB05B000BD00000004004014
:101CB000000400487047F8B5064604462036307EDA
:101CC0000D4601280DD001203076022070760427C1
:101CD000002A08D0042A16D0082A2AD00C2A4DD16E
:101CE00037E00220F8BD206800F094FD206881698B
:101CF00008221143816120688169B94381612068AC
:101D000081692A6912E0206800F0C0FD20688269BC
:101D10000121C9020A43826120688169012292027D
:101D200091438161206881692A69120211438161AE
:101D300024E0206800F0E4FD2068C26908210A431D
:101D4000C2612068C169B943C1612068C1692A695B
:101D500012E0206800F010FE2068C1690122D20262
:101D60001143C1612068C269012189028A43C261AD
:101D70002068C1692A6912021143C161012070768D
:101D800000203076F8BD70B5040005D0254620351A
:101D9000687E002802D006E0012070BD0020287671
:101DA000204600F00AF802206876211D206800F025
:101DB000D5FC01206876002070BD70477047000098
:101DC00010B504460068012200F006FD0A482168AB
:101DD000814205D00948814202D00948814204D19C
:101DE000486C0122D2031043486420680168012234
:101DF00011430160002010BD002C0140004401404F
:101E00000048014070B5184C0423E17820460122B7
:101E100000250A30002907D0012908D0052302290E
:101E200002D0032903D004E00370427001E0037084
:101E30004570482181704921C170442101715521AB
:101E40004171532181714221C171074920220A3118
:101E5000064801F09AF9E078401CC0B2E07003280F
:101E600000D9E57070BD0000E40100204C050020A1
:101E7000704770B5040005D025466035687A0028A3
:101E800002D006E0012070BD00202872204600F03C
:101E900027F8242068722068016849084900016019
:101EA000204600F061FE0128EDD0606A002802D0D3
:101EB000204600F0B5FD206841680922D202914316
:101EC0004160206881682A2291438160206801680E
:101ED000012211430160204600F008FE70BD0000A1
:101EE00000B50068124987B088421FD11148826945
:101EF000012189030A43826180690840059003201B
:101F000040020090022001900121032003900291E1
:101F1000049109206946C006FEF7F4F90022114633
:101F20001B20FEF7E9FA1B20FEF7DCFA07B000BD24
:101F3000003801400010024070B5034660339C7ABF
:101F4000202C49D100290BD0002A09D00125846812
:101F50002D03AC4206D10669002E03D1CE0701D075
:101F6000012070BD1E7A012E36D001261E724165F9
:101F7000014640310A834A83FF22AC4204D10469FE
:101F8000002C12D1154A10E07F25002C08D0012228
:101F9000120794420AD10269002A04D03F2204E0C9
:101FA0000469002C01D08D8300E08A830021C16682
:101FB00022229A7202681468FF2501352C431460AE
:101FC00002689468344394601972006801682022A2
:101FD00011430160002070BD022070BDFF010000B0
:101FE0007047FFB5064604466036707A81B00D46EC
:101FF00020284CD1002D0AD0002A08D0A168C001A9
:10200000814207D12169002904D1E90702D00120CA
:1020100005B0F0BD317A012939D00121317200219A
:10202000E16621217172274640373A827A82788AA6
:102030000022401E788280212046049B00F05FFE33
:10204000002816D10120A1680003814202D1206935
:10205000002810D02168287808856D1C788A00280F
:10206000E5D1002240212046049B00F048FE0028D4
:1020700008D00320CCE728882168C005C00D08855A
:10208000AD1CEBE72020707200203072C0E7022008
:10209000BEE77047FEE7000000B5124887B042690E
:1020A000012189050A43426142690A400592426959
:1020B00049110A43426142690A4005924269490056
:1020C0000A43426140690840059088120090002050
:1020D00001900220029069460348FEF713F907B009
:1020E00000BD0000001002400004004810B5114877
:1020F0000F490160FF210531416000210322816009
:1021000012020161C26001224161520282610162D8
:1021100038224162C26181620722C26201630821E2
:102120004163FFF74FFB002801D0FEF7DFF810BD39
:10213000003001400004002010B50A480849016041
:102140000022094982604160FF21F4310261C160CF
:10215000FFF71AFC002801D0FEF7C8F810BD0000F8
:1021600000200040100500207FBB000010B524496E
:1021700024488EB0002412C004602349846041606A
:102180000838FFF701FC002801D0FEF7AFF8012066
:102190000003079007A91B48FFF749FC002801D05E
:1021A000FEF7A4F81748FFF7EEFD002801D0FEF770
:1021B0009DF80B940BA913480C94FFF7C1FB002862
:1021C00001D0FEF793F86020009004200490019461
:1021D0000294082269460B48FFF76DFD002801D0E4
:1021E000FEF784F80C2269460648FFF764FD0028D4
:1021F00001D0FEF77BF80348FFF742FD0EB010BD9B
:1022000000040040D4040020FFFF000010B50E4879
:102210000C4901604B2149024160012109038160A1
:102220000122920202610021C1608161C1610C2220
:10223000016242614162FFF71CFE002801D0FEF7F7
:1022400055F810BD003801406404002010B500228C
:102250000749084801F069F90749064801F04FFBB2
:10226000044800F043FE034801F09AFB10BD000053
:10227000280200204C0500205C010020704700006F
:102280008307FF22DB0E9A408907090E9940002838
:102290000BDA0007000F0838830808489B0018185D
:1022A000C36993430B43C3617047830804489B0091
:1022B0001B181868904308431860704700ED00E051
:1022C00000E400E0F0B585B004460020694688804F
:1022D0002646203678E19A8917073F0F26D0B900A5
:1022E0000291425A9A80998809047DD5BE490A40D4
:1022F0000299425238461C2148430519FF350935D9
:10230000A87A0028206870D029788A00825A52045E
:102310006CD55022125ACB00B44912185918515A90
:102320008905890D00917DD0EA88BDE09A89D206A1
:1023300027D40188AE4A25461140018020685021EB
:10234000095A283508182978CA00A8495118405A4E
:102350008005800D2064A16B0818A0630021204631
:10236000FEF7EBF830790028B4D068690028B1D1C5
:102370003079802108432168403188810020307104
:1023800022E12546FF35028809359A809B881B0586
:1023900019D5098A09182878C2009448001D101818
:1023A000085A294683059B0DAB61AA88E431206851
:1023B00000F024F920688C4A0188114001802046F1
:1023C000FEF71CFE00E1694689880904D8D58649D4
:1023D000864F0A40028020685021095A3F1D091883
:1023E0002878C000C01902E085E03DE04FE0085ABF
:1023F00083059B0DAB6108D0AA882969206800F08D
:10240000FDF8A96928694018286100212046FEF7D7
:10241000A0F8206801464030008A4018C119E868D9
:102420003E2800E044E00AD9C202120CC00601D1E5
:10243000521E92B290020122D203104306E0C20360
:10244000120CC00701D0521C92B290020880216881
:10245000684A088810400122120350405200504040
:10246000654A10430880AFE05021095A0A182978BC
:10247000CB005E49091D5918515A8905890D0091F3
:1024800021D0AA882969009B00F0B8F81BE05022EF
:10249000CB00125A55491218091D5918515A89056D
:1024A000890D009104D02A892969009B00F0A6F8C3
:1024B000297820688A004E4B815A803319404E4B50
:1024C000403319438152A96900980818A861296905
:1024D00000980A182A616B69002B03D0E9680098FC
:1024E000814204D929782046FEF733F803E02978A1
:1024F0002046FEF7A7FA68468088000664D51C20AF
:102500004743206802993A4A415A3D191140029ABC
:1025100028358152A87A0028206811D029788A00AD
:10252000825C52061ED55022125AC90012182F483A
:102530000818105A83059B0DAB6124D0EA881EE071
:102540005021095A09182878C20028481018085A3A
:1025500083059B0DAB6121D0AA882969206800F012
:102560005CF81BE05022125AC90012181F48001DC7
:102570000818105A83059B0DAB6104D02A8929697C
:10258000206800F04AF8287822688000184B115A19
:1025900080331940174BF1331943115220685021F1
:1025A000095A09182878C20010481018085A8005DE
:1025B000800DA86129690A182A616B692978002BA6
:1025C00020460DD0FEF724FB2068014640318A8862
:1025D0006B469A81120400D57DE6002005B0F0BD5F
:1025E000FDF7ABFFF0E700008F0F000002040000D2
:1025F0000F8F00008FBF00008080000010180122A4
:102600005B1C92025B088018002B05D002880A80B0
:10261000801C891C5B1EF9D17047101801225B1CBD
:10262000920210B55B088018002B08D04A780C780D
:10263000120222430280801C891C5B1EF6D110BD51
:102640007047000010B50248FFF777F810BD000092
:1026500000040020704710B5FDF7FEFEFFF76AF991
:1026600010BD000030B597B001200090019000042B
:102670000A900001022500240B9009950C946846ED
:10268000FEF76EFE002800D0FEE707200D900F94A5
:1026900001210E9510940DA8FEF75EFD002800D0D4
:1026A000FEE70E48119080201690139411A8FEF7B3
:1026B000CDFC002800D0FEE7FEF7F8FD7D21C90023
:1026C000FDF734FDFFF71EF90420FFF70DF9002296
:1026D0001146501EFDF710FF17B030BD010002007B
:1026E000134801680122114301604168114A1140F9
:1026F00041600168104A11400160016801229204A2
:102700009143016041683F22120491434160C16AD4
:1027100009090901C162016BFF22D43291430163AF
:10272000416B490849004163002181607047000006
:10273000001002400CB8FF08FFFFF6FE10B502487B
:10274000FFF7EDF910BD00001005002010B502489C
:10275000FFF7E5F910BD0000D4040020F0B50268D1
:10276000184B0124A407184D984203D0A04201D071
:10277000A84203D17026B2434E683243134E144F21
:1027800098420AD0A04208D0A84206D0114CA042DC
:1027900003D0B04201D0B84204D103242402A243A2
:1027A000CC68224302608A68C2620A6882629842E8
:1027B00003D0B04201D0B84201D1096901630121BF
:1027C0004161F0BD002C0140000400400044014084
:1027D000004801400020004010B50123046A8B40EE
:1027E0009C430462036A8A401343036210BD30B500
:1027F0008468FF252D021B021343AC430B43234384
:10280000836030BD826870239A430A4307210A43DC
:1028100082607047F0B5026A520852000262056A8F
:10282000436882697024A24392080C6892001443A2
:10283000022295438A68134E2A43114DA84204D0C0
:10284000B04202D0104FB84206D10827BA43CF6831
:102850001743042297433A46A84204D0B04202D01C
:10286000094DA84206D103252D02AB434D691D43F6
:102870008B692B4343608461496841630262F0BD08
:10288000002C0140004401400048014070B5026A3C
:1028900010239A430262046A4368826973252D02F9
:1028A000AA430D682D021543202294438A68120121
:1028B0002243104CA04208D11446CA688026B44373
:1028C000120122434024A24305E00B4CA04202D057
:1028D0000A4CA04208D10324A402A3434C69A400DB
:1028E0001C438B699B002343436085614968816376
:1028F000026270BD002C01400044014000480140CC
:1029000070B5026AFF2301339A430262046A436886
:10291000C2697025AA4392080D68920015430122EE
:10292000520294438A6812022243104CA04207D1FB
:10293000C414A243CC68240222430615B24305E026
:102940000B4CA04202D00B4CA04208D1032424031C
:10295000A3434C6924011C438B691B01234343603F
:10296000C5614968C163026270BD0000002C01406E
:10297000004401400048014030B5026A01231B03B6
:102980009A430262056A4268C36973242402A3431E
:102990000C6824021C4301235B039D438B681B03CB
:1029A0002B430A4DA84205D0094DA84202D0094D3B
:1029B000A84205D10125AD03AA434D69AD012A43C3
:1029C0004260C46149680164036230BD002C01406B
:1029D000004401400048014030B5036A046A6408BD
:1029E000640004628469F025AC43120122430A2486
:1029F000A3430B438261036230BD30B5036A1024E8
:102A0000A34303628469036A0F252D031203AC43B9
:102A10002243A024A343090119438261016230BD0E
:102A200010B5818CC90707D001684A6801235B048F
:102A30009A43836A1A434A60818C890707D50168E3
:102A40004A6801231B049A43C36A1A434A60818C73
:102A5000490707D501684A6801239B049A43036B21
:102A60001A434A60818C090707D501684A68012327
:102A7000DB039A43436B1A434A60818CC90607D52E
:102A80000268916801231B039943836B194391608A
:102A9000818C890607D501688A6801235B039A4304
:102AA000C36B1A438A60818C490612D503685A6841
:102AB00001210905046C8A4322435A60026C8A4250
:102AC00007D10268516803235B059943436C19439E
:102AD0005160818C090607D501684A680123DB042F
:102AE000806C9A4302434A6010BD000070B5002517
:102AF0000446C5660068134988421BD10068124E1F
:102B0000000708D50121334600224905204600F080
:102B1000F6F800280CD12068006840070AD501218A
:102B2000334600228905204600F0E9F8002801D04C
:102B3000032070BD202060346072A07225720020D6
:102B400070BD000000380140E803000010B50168C6
:102B50000A6840239A430A60202269210A54FFF739
:102B600098FA002010BD0000F8B504462369A26859
:102B7000E5691A43636910202B43002125681A4335
:102B80002B680E463E4F3B4013432B6023685A6828
:102B900003252D03AA43E5682A435A60236AA269E4
:102BA00025681A43AB680B273F02BB431343AB6056
:102BB000344A2568954210D1334A126B9207920F1E
:102BC0000ED0012A05D0022A05D0032A09D10220FD
:102BD00007E0042005E0082003E02C4A954200D1DC
:102BE00000200122E369D203934224D100280CD0B3
:102BF00002280DD0042813D0082817D001260A096E
:102C000012010807400F10432FE0FEF755FB09E0C3
:102C100061681F4A48088018FDF788FA81B2EEE71C
:102C2000FEF75AFB616840004A08F4E76168012238
:102C300048081204EFE7002808D0022809D0042829
:102C40000BD0082814D001263046F8BDFEF734FB1F
:102C500005E061680F4A48080CE0FEF73DFB61683B
:102C60004A088018FDF762FA80B22168C860EBE775
:102C7000616848088018FDF759FA80B2E860E3E718
:102C8000F369FFEF003801400010024000440040AB
:102C90000024F40000127A006921095C212901D086
:102CA0000220704702464032518A002912D0012387
:102CB00081681B03994202D10169002915D0C16CBA
:102CC0004B1CC364006809780185508A401E5082FD
:102CD0000020704701680A6880239A430A600068F0
:102CE0000168402211430160F2E7C16C0368098862
:102CF000C905C90D1985C16C891CC164E5E7F8B522
:102D00001E4615460F460446FDF7A0FB29462546FC
:102D10006035009000291AD043E0701C17D0002EB7
:102D200005D0FDF793FB0099401AB0420FD92068F7
:102D3000026880218A43026021680A682020824359
:102D40000A6021680B68C20093430B601EE0206894
:102D5000C16938468843E0D128E0701C21D0002E9C
:102D600005D0FDF773FB0099401AB04219D92068CD
:102D7000016880229143016021680A682020824313
:102D80000A6021680A68C3009A430A6021688A6859
:102D9000520852008A606872A872002028720320CC
:102DA000F8BD2068C16938468843D6D00020F8BDF8
:102DB00010B5024800F010FF10BD000064040020B0
:102DC000FF30FF3002308069002803D000214165C8
:102DD000084670470220704770B5C21DFF32FA32B4
:102DE0001546946900F061FCE064A869002808D0E9
:102DF000E969606C4968CA6821464C3190470020F7
:102E000070BD022070BD70B504460025822100F01F
:102E1000AEFB0221204600F0AAFB8321204600F0F1
:102E2000A6FBFF34FF340234A069002808D0E06913
:102E3000406840688047A06900F0C0FE0020A061A3
:102E4000284670BDFF3010B5FF3002308169C0697F
:102E50004368002B09D00C4640342078FF2804D06A
:102E60009B6862789847FF202070002010BD10B545
:102E7000012902D0FFF7A4FF10BD00F008F910BD32
:102E800010B5012902D0FFF7A7FF10BD00F008F927
:102E900010BD70B50C46054600F016F921462846CF
:102EA000FFF7B1FF002070BD10B5044600F026F911
:102EB0002046FFF7C7FF002010BD00006B210180F6
:102EC00000487047E40000200A2101800048704754
:102ED0005001002070B50C46054600F022F921464D
:102EE000284600F025F8002070BD000010B504460B
:102EF000FF30FF3006490230C1610649204600F02C
:102F000039F90549204600F055F8002010BD0000B1
:102F1000DC000020AC0200201002002010B58A88DE
:102F2000002A02D000F060F810BD00F045F910BD95
:102F300070B50446007C00264023022282212046F0
:102F400000F01EFC022240231146204600F018FC2F
:102F5000082303228321204600F012FC5C2000F0AD
:102F60002FFEE11DFF31FA318861002810D005469F
:102F7000C86940680068804700206865A865207CB3
:102F80004023022120466A6C00F006FC304670BDEA
:102F90000126FBE710B54321C9000958002907D0D5
:102FA000027C4A6C4023022100F0F6FB002010BD99
:102FB000022010BD02460220002905D0FF32FF3258
:102FC0000232D069416000207047FF30FF3002308C
:102FD0008069416400207047FF30FF300230806913
:102FE0000265816400207047F8B5C61D0746FF36AC
:102FF0000C46FA3608786021B569014023D02029B3
:1030000029D1E288002A16D0000608D5F169607837
:1030100049688B6829469847E288294618E028467F
:10302000617840300170A1794170E28829463846C4
:1030300000F042F90FE0F1696078496800228B687E
:103040002146984707E060780A2804D10349012205
:10305000384600F04DF90020F8BD000000000020C7
:1030600010B54321C900095800290ED04A6D002A25
:1030700001D0012010BD01224A650A6D93B28A6C0D
:10308000822100F01FFC002010BD022010BDFF3087
:10309000FF300230806900212030017408467047FB
:1030A00070B5C51DFF35FA35EA69AC691268064688
:1030B000D26861782078904720232246012130464B
:1030C00000F06AFB002070BD10B50446812100F0BD
:1030D0004EFA0121204600F04AFAFF34FF34023450
:1030E000A069002808D0E069006880688047A0696E
:1030F00000F064FD0020A061002010BDFF3010B57D
:10310000FF3002308469E16A012908D1C06923785F
:1031100000686178C268184690470020E06200208D
:1031200010BD70B50446002640230322812100F023
:1031300027FB402303220121204600F021FB3420FD
:1031400000F03EFDE11DFF31FA31886100280FD00B
:103150000546002220300274C86900684068804734
:1031600020232A460121204600F016FB304670BD80
:103170000126FBE702460220002905D0FF32FF327C
:103180000232D06901600020704710B51346FF2459
:103190004322FD34D200245C1258032C09D1203282
:1031A000147C002C05D1012414740A46812100F0FE
:1031B00089FB002010BD0000F8B5C41DFF34FA34AF
:1031C000002225460E78A469602713463E4026D08B
:1031D000202E4AD14A78921E130000F04DFD0A11AC
:1031E000091C1C1C1C1C150D061C887820623CE068
:1031F0000122214620312FE04888000A606234E035
:1032000001222146243127E00122E2628A79214607
:1032100000F052F829E000F045F80220F8BD4E78A1
:10322000062E04D00A2E1AD00B2E1ED11BE04C887D
:10323000240A222C02D0212C08D00CE0CA884E2A65
:1032400000D94E22E96909680B6804E0CA88084B76
:10325000092A00D90922194600F04AF805E001229E
:1032600021462831F8E78878A0620020F8BD0000E8
:10327000C401002010B58522920012585268904770
:10328000002010BD134610B50A46002100F084FA54
:10329000002010BD134610B50A46002100F012FBB5
:1032A000002010BD10B50446802100F0F1FA002185
:1032B000204600F0EDFA10BD10B5FF230324F533CE
:1032C0001C50C31DF9339A60DA6013460A46002188
:1032D00000F062FA002010BD10B5FF210522F53183
:1032E0000A5000231A46194600F056FA002010BD75
:1032F00010B5FF230224F5331C5082611346C261CE
:103300000A46002100F0DEFA002010BD10B5FF21B2
:103310000422F5310A5000231A46194600F0D2FA69
:10332000002010BD10B50A46024903A000F0DBF8EA
:10333000004810BD280A00204344432B204849443C
:1033400020436F6E6669670012200880004870474E
:103350004802002010B50A46024903A000F0C3F855
:10336000004810BD280A00204344432B204849440C
:1033700020496E74657266616365000004200880F0
:10338000004870474402002010B50A46024903A0D5
:1033900000F0A9F8004810BD280A002053544D69D8
:1033A00063726F656C656374726F6E69637300003E
:1033B00010B50A46024903A000F095F8004810BD78
:1033C000280A002053544D333220436F6D706F73C1
:1033D0006974650010B50A46024903A000F083F83D
:1033E000004810BD280A00203030303030303030F6
:1033F0003030314100000000F8B50D4604464988E0
:10340000FF300A0AFF300230130000F035FC08508C
:103410000509165050454D500069237C026817E09D
:10342000217C02264069002905D0C16A6846884788
:103430000146467047E0816AF8E7CAB2130000F01F
:103440001BFC06040B0F161A1E240069237C42681D
:1034500069461846904716E00069227C836802E0BE
:103460000069227CC3686946104698470BE00069F2
:10347000227C0369F7E70069227C4369F3E700696E
:10348000227C8369EFE701461DE04069C9B2836B86
:103490006A4620469847F6E7217C002907D1406913
:1034A000416B68468847EEE7217C002904D0294615
:1034B0002046FFF7F7FEF8BD4069016B6846884774
:1034C000072201464270684600880028F3D0EA8847
:1034D000002AF0D0824200D9024668460280204687
:1034E000FFF706FFF8BD70B5002300281CD0044686
:1034F000002502E06D1CEDB2641C2678002EF9D187
:103500006C00A41C1480CC5403225B1CCA540024FD
:103510005B1C06E0CA545B1CDAB28C54521CD3B25A
:10352000401C0278002AF5D170BD10B5002813D0D8
:10353000C31DFF33FA335C69002C01D000245C61A9
:10354000002900D01961FF210123FD310B540270C5
:1035500000F0B4F8002010BD022010BDFF3010B5FF
:10356000FF300230006AFDF7B7F8002010BDFF30D1
:1035700010B5FF300230006AFCF7FAFF002010BDE2
:10358000FEB50446FF30E51DE130FF35FA35134640
:103590000190002908D068694269002A49D0019841
:1035A000007F032843D044E02646FF36813620467C
:1035B000716F1430022934D1C2688168009291423F
:1035C00007D9891A81608AB219462046FFF762FE40
:1035D00013E0406811460746FCF7A8FD002913D107
:1035E0000098874210D3B06F87420DD20022114657
:1035F0002046FFF74FFE0020B06700231A46194609
:10360000204600F0C9F80CE06869C168002905D0BF
:103610000198007F032801D1204688472046FFF704
:103620005BFE2878012804D10020287001E02046A4
:1036300090470020FEBD70B50546FF35E1352B46AD
:10364000203316460446002907D058698269002AAB
:1036500029D0287F032824D025E0FF21F531E01D63
:103660000959FD3003291ED18268C1688A420BD9ED
:10367000511A8160C068814200D301468AB2314646
:103680002046FFF7FFFD0EE058690169002904D0CC
:10369000287F032801D1204688472046FFF736FEC1
:1036A00001E020469047002070BDFF3010B5FF308C
:1036B0000230006AFDF76AF810BD000010B5244919
:1036C000C41DC861FF342349FA34234821620860CD
:1036D000022208208A60486003200A61C860002036
:1036E0008861C8610846FDF7DFFB002801D0FCF7C0
:1036F000FDFD002218231146206AFCF701FF582324
:1037000000228021206AFCF7FBFE98230022812101
:10371000206AFCF7F5FED82300220121206AFCF77D
:10372000EFFEC02300228221206AFCF7E9FEFF237E
:10373000113300220221206AFCF7E2FEFF2301334D
:1037400000228321206AFCF7DBFE002010BD000070
:10375000080A002008080020005C0040FF30CA0969
:10376000FF3049060230490E1C23006A59430818ED
:10377000002A01D0203001E0FF300130807A70470C
:1037800010B5FF301C46FF3002301346006A224657
:10379000FDF706F8002010BDFF3010B5FF300230F5
:1037A000006AFDF74FF9002010BD70B500220446F5
:1037B00040231146FFF7E4FF4025FF20113005515B
:1037C0002B46002280212046FFF7DAFFFF2001214F
:1037D000FD3025620155E01DFF30FA308169002976
:1037E00004D040692179426820469047002070BD8E
:1037F000FF30E130417F01770020704710B5FF2195
:10380000FD31095C032906D1852189000958C96960
:10381000002900D08847002010BD017400207047A7
:10382000FF3010B5FF300230006AFDF7D1FB0020F9
:1038300010BD70B504464120C0002018054600F0B8
:103840004AF82146FF3181310122084680304A671B
:10385000C2898A67007AC106C90E0AD001290DD033
:10386000022910D0C109C901204600F011F800203A
:1038700070BD2946204600F098F8F8E72946204612
:1038800000F07FF9F3E72946204600F005F9EEE75E
:10389000FF3010B5FF300230006AFDF76FF90020ED
:1038A00010BDFF3010B5FF300230006AFDF7B1FBEC
:1038B000002010BDFF30E130017F41770421017706
:1038C00000207047FF3010B5FF300230006AFDF76E
:1038D0009FF9002010BD0A7802704A784270CB78B8
:1038E0008A781B02D21842804B790A791B02D218BF
:1038F00082808A79C97909025118C18070470246CD
:103900000020002904D0FF32FF320232516170479B
:103910000220704710B58522920012580224002A16
:1039200004D012689047002800D10024204610BD22
:1039300070B50E468978194D04462970012904D9BD
:1039400031462046FFF7AEFC70BD2046FF30E13027
:10395000027F022A15D0032AF2D1002917D060680D
:1039600088420AD0C1B22046FFF784FC2978616002
:103970002046FFF7CFFF0228E2D02046FFF7C6FC23
:1039800070BD0029F9D0032261600277F0E70222BE
:10399000027720466160FFF76DFCEEE7DB00002058
:1039A00010B5FFF77EFF002010BDF8B50022009291
:1039B000C61DFF364C781746FA3632460125203AA6
:1039C000230000F059F90A3C564150410906412BA9
:1039D0002841FFF711FD5DE004468888002818D1D2
:1039E000C888002815D1887817464606107F760EBD
:1039F00003280ED0BE7731462046FFF711FF204640
:103A0000FFF784FC002E02D00220387742E03D7799
:103A100040E0204618E0FFF78BFF3BE0CB88012B0E
:103A200012D1127F022A02D0032A0DD104E0012212
:103A300001460831876013E00122011D10E0127F6A
:103A4000022A04D0032A02D0FFF72CFC22E0C56032
:103A50007168002901D00321C160014602220C31A6
:103A6000FFF746FC16E004464888012812D175602D
:103A700009E00446107F022801D00328C9D14888F4
:103A8000012807D1776070698268204690472046F8
:103A9000FFF73CFC0098F8BDF8B504460D462878C1
:103AA000E61D4006FF3600270979800FFA36012807
:103AB00009D06A7830462038002A38D0012A1ED032
:103AC000032A3DD106E07069294682682046904766
:103AD0000020F8BD007F022817D003282CD1688869
:103AE000002806D1002904D0802902D02046FFF703
:103AF000CFFE7069294682682046904713E0007F18
:103B0000022802D0032817D104E0002918D0802908
:103B10001AD115E06888002812D1480603D0204643
:103B2000FFF71CFDE5E72046FFF7F0FB08E0007F0C
:103B3000022807D003280BD029462046FFF7B2FB06
:103B40003846F8BD4806FBD02046FFF7A1FEF7E750
:103B5000C80904D04806400D0519143504E048068C
:103B6000400D0519FF3505352046FFF7F7FD002804
:103B700000D001202860022229462046FFF7B8FB2A
:103B8000DEE770B50446FF30E130007F0D460328C4
:103B90000FD128790A280CD8852080000059826826
:103BA00020469047E888002806D12046FFF7AEFB64
:103BB00002E02046FFF776FB002070BD7047000052
:103BC000004870477007002010B50248FDF7E6F87E
:103BD00010BD000008080020F8B504460068C1695F
:103BE000890607D50168890604D525466035A97A76
:103BF000222913D0C169090605D50068000602D53F
:103C00002046FFF749F82068C169490605D50068D4
:103C1000400602D52046FEF799FFF8BD818C274665
:103C20004037387F124E01403278606D81543078D1
:103C3000A021401CFCF77AFA31700E490888401C1C
:103C40000880788B0028E8D12068026820218A4308
:103C5000026020680268CB009A4302602068826894
:103C6000520852008260A9722046FEF7B9F9F8BDE9
:103C70000F020020EC01002030B47446641E257849
:103C8000641CAB4200D21D46635D5B00E31830BC90
:103C9000184702E008C8121F08C1002AFAD170476D
:103CA0007047002001E001C1121F002AFBD17047BC
:103CB000A8B0FCF7D9FBFEF7D5FCFEF7EDF9FEF74F
:103CC00015FAFEF739FAFEF7A1FAFEF7BFFAFEF78A
:103CD0004DFA4F48FDF7A0FE08214E48FEF770F858
:103CE0000C214C48FEF76CF8A0224B494B48FEF7DC
:103CF00023F94B4C6F462078002806D0401E000662
:103D0000000E207001D1474908606078002807D074
:103D1000401E0006000E607002D142494039C8635F
:103D2000A0216846FCF71FFA2589002D28D0052020
:103D300020703C493C480860002616E0364960790E
:103D4000095CB955A021401CFCF7F0F96171312ED6
:103D50000AD132216846FCF78BFA208900263238D6
:103D6000323D2081ADB2F643761CAE42E6DB002D3B
:103D700006D029466846FCF77BFA2089401B208143
:103D8000E588002D2ED00520264960702648403950
:103D9000C863002619E020492079A031095CB95593
:103DA000A021401CFCF7C2F921711F2E0CD1FF236A
:103DB000202269461948FEF714F9E08800262038C9
:103DC000203DE080ADB2F643761CAE42E3DB002D31
:103DD00008D0E088FF23401BE0802A4669460F4850
:103DE000FEF7FFF8FF2101311048FCF729FBA1780D
:103DF000814209D00A4902220A310A704870A07033
:103E000020220B48FFF7C1F90120FCF770FA72E796
:103E100010050020D4040020C0020020640400200B
:103E2000E401002040040040FFFF000000040048BF
:103E30004C05002000000000000000000102030407
:103E40000607080900000000010203046C3E000898
:103E500000000020C0020000A0010008B43F0008DC
:103E6000C0020020680D0000A23C000841130A06B1
:103E700032023340011409024313020125C0320902
:103E8000041B01020B13052416100105240110095F
:103E900001042402020524061701070583030815FF
:103EA0001009040133020A2E0705020240072A8284
:103EB000070944442A07440A2204440A16FF44130B
:103EC000AC021B2010041409026B6A03902B02033E
:103ED0005E1B2111481B224E2B2C810340492A01D5
:103EE000071B080B6A2C02010251091FB80A1302B2
:103EF00074130A06320233400113D52E1B089304B3
:103F0000131D2F42081AA90C1A6F041A8104C11A32
:103F1000BD1069045AC91C140902290A2201B4A956
:103F20001AD98011F3127A6A78010A14200A21132F
:103F300001021408FB011B08F7041A250C81134920
:103F4000331B087D041A89041AB1041AD5041A25F2
:103F5000041A550417040309041201100A02EF029F
:103F60000140830441571D02010203811206100B18
:103F7000FF0901A1018501090115280925FF75081F
:103F8000951FB1820E9F91828503090314190E19A2
:103F9000142C020902105F8182850409040A4C0571
:103FA00009050A22C0135C021B20A1941A9D045A21
:043FB000A59C0000CC
:04000005080000C12E
:00000001FF
